{
    "contractName": "Crowdfunding",
    "abi": [
        {
            "inputs": [],
            "stateMutability": "nonpayable",
            "type": "constructor"
        },
        {
            "anonymous": false,
            "inputs": [
                {
                    "indexed": false,
                    "internalType": "uint256",
                    "name": "campaignId",
                    "type": "uint256"
                },
                {
                    "indexed": false,
                    "internalType": "address",
                    "name": "owner",
                    "type": "address"
                },
                {
                    "indexed": false,
                    "internalType": "string",
                    "name": "name",
                    "type": "string"
                },
                {
                    "indexed": false,
                    "internalType": "uint256",
                    "name": "goal",
                    "type": "uint256"
                },
                {
                    "indexed": false,
                    "internalType": "uint256",
                    "name": "deadline",
                    "type": "uint256"
                }
            ],
            "name": "CampaignCreated",
            "type": "event"
        },
        {
            "anonymous": false,
            "inputs": [
                {
                    "indexed": false,
                    "internalType": "uint256",
                    "name": "campaignId",
                    "type": "uint256"
                }
            ],
            "name": "CampaignFailed",
            "type": "event"
        },
        {
            "anonymous": false,
            "inputs": [
                {
                    "indexed": false,
                    "internalType": "bool",
                    "name": "isPaused",
                    "type": "bool"
                }
            ],
            "name": "CampaignPaused",
            "type": "event"
        },
        {
            "anonymous": false,
            "inputs": [
                {
                    "indexed": false,
                    "internalType": "uint256",
                    "name": "campaignId",
                    "type": "uint256"
                }
            ],
            "name": "CampaignSuccessful",
            "type": "event"
        },
        {
            "anonymous": false,
            "inputs": [
                {
                    "indexed": false,
                    "internalType": "uint256",
                    "name": "campaignId",
                    "type": "uint256"
                },
                {
                    "indexed": false,
                    "internalType": "address",
                    "name": "contributor",
                    "type": "address"
                },
                {
                    "indexed": false,
                    "internalType": "uint256",
                    "name": "amount",
                    "type": "uint256"
                }
            ],
            "name": "ContributionReceived",
            "type": "event"
        },
        {
            "anonymous": false,
            "inputs": [
                {
                    "indexed": false,
                    "internalType": "uint256",
                    "name": "campaignId",
                    "type": "uint256"
                },
                {
                    "indexed": false,
                    "internalType": "uint256",
                    "name": "amount",
                    "type": "uint256"
                }
            ],
            "name": "FundsWithdrawn",
            "type": "event"
        },
        {
            "anonymous": false,
            "inputs": [
                {
                    "indexed": false,
                    "internalType": "uint256",
                    "name": "campaignId",
                    "type": "uint256"
                },
                {
                    "indexed": false,
                    "internalType": "address",
                    "name": "backer",
                    "type": "address"
                },
                {
                    "indexed": false,
                    "internalType": "uint256",
                    "name": "amount",
                    "type": "uint256"
                }
            ],
            "name": "RefundIssued",
            "type": "event"
        },
        {
            "inputs": [],
            "name": "admin",
            "outputs": [
                {
                    "internalType": "address",
                    "name": "",
                    "type": "address"
                }
            ],
            "stateMutability": "view",
            "type": "function",
            "constant": true
        },
        {
            "inputs": [
                {
                    "internalType": "uint256",
                    "name": "",
                    "type": "uint256"
                },
                {
                    "internalType": "address",
                    "name": "",
                    "type": "address"
                }
            ],
            "name": "campaignBackers",
            "outputs": [
                {
                    "internalType": "uint256",
                    "name": "amountContributed",
                    "type": "uint256"
                }
            ],
            "stateMutability": "view",
            "type": "function",
            "constant": true
        },
        {
            "inputs": [],
            "name": "campaignCount",
            "outputs": [
                {
                    "internalType": "uint256",
                    "name": "",
                    "type": "uint256"
                }
            ],
            "stateMutability": "view",
            "type": "function",
            "constant": true
        },
        {
            "inputs": [
                {
                    "internalType": "uint256",
                    "name": "",
                    "type": "uint256"
                }
            ],
            "name": "campaigns",
            "outputs": [
                {
                    "internalType": "string",
                    "name": "name",
                    "type": "string"
                },
                {
                    "internalType": "string",
                    "name": "description",
                    "type": "string"
                },
                {
                    "internalType": "uint256",
                    "name": "goal",
                    "type": "uint256"
                },
                {
                    "internalType": "uint256",
                    "name": "deadline",
                    "type": "uint256"
                },
                {
                    "internalType": "address payable",
                    "name": "owner",
                    "type": "address"
                },
                {
                    "internalType": "enum Crowdfunding.CampaignState",
                    "name": "state",
                    "type": "uint8"
                },
                {
                    "internalType": "uint256",
                    "name": "balance",
                    "type": "uint256"
                },
                {
                    "internalType": "bool",
                    "name": "proofSubmitted",
                    "type": "bool"
                }
            ],
            "stateMutability": "view",
            "type": "function",
            "constant": true
        },
        {
            "inputs": [],
            "name": "paused",
            "outputs": [
                {
                    "internalType": "bool",
                    "name": "",
                    "type": "bool"
                }
            ],
            "stateMutability": "view",
            "type": "function",
            "constant": true
        },
        {
            "inputs": [
                {
                    "internalType": "address",
                    "name": "",
                    "type": "address"
                },
                {
                    "internalType": "uint256",
                    "name": "",
                    "type": "uint256"
                }
            ],
            "name": "userCampaigns",
            "outputs": [
                {
                    "internalType": "uint256",
                    "name": "",
                    "type": "uint256"
                }
            ],
            "stateMutability": "view",
            "type": "function",
            "constant": true
        },
        {
            "inputs": [
                {
                    "internalType": "string",
                    "name": "_name",
                    "type": "string"
                },
                {
                    "internalType": "string",
                    "name": "_description",
                    "type": "string"
                },
                {
                    "internalType": "uint256",
                    "name": "_goal",
                    "type": "uint256"
                },
                {
                    "internalType": "uint256",
                    "name": "_duration",
                    "type": "uint256"
                }
            ],
            "name": "createCampaign",
            "outputs": [],
            "stateMutability": "nonpayable",
            "type": "function"
        },
        {
            "inputs": [
                {
                    "internalType": "uint256",
                    "name": "_campaignId",
                    "type": "uint256"
                }
            ],
            "name": "contribute",
            "outputs": [],
            "stateMutability": "payable",
            "type": "function",
            "payable": true
        },
        {
            "inputs": [
                {
                    "internalType": "uint256",
                    "name": "_campaignId",
                    "type": "uint256"
                }
            ],
            "name": "submitCompletionProof",
            "outputs": [],
            "stateMutability": "nonpayable",
            "type": "function"
        },
        {
            "inputs": [
                {
                    "internalType": "uint256",
                    "name": "_campaignId",
                    "type": "uint256"
                }
            ],
            "name": "withdrawFunds",
            "outputs": [],
            "stateMutability": "nonpayable",
            "type": "function"
        },
        {
            "inputs": [
                {
                    "internalType": "uint256",
                    "name": "_campaignId",
                    "type": "uint256"
                }
            ],
            "name": "refundBackers",
            "outputs": [],
            "stateMutability": "nonpayable",
            "type": "function"
        },
        {
            "inputs": [
                {
                    "internalType": "uint256",
                    "name": "_campaignId",
                    "type": "uint256"
                }
            ],
            "name": "autoRefund",
            "outputs": [],
            "stateMutability": "nonpayable",
            "type": "function"
        },
        {
            "inputs": [
                {
                    "internalType": "uint256",
                    "name": "_campaignId",
                    "type": "uint256"
                }
            ],
            "name": "getContributors",
            "outputs": [
                {
                    "internalType": "address[]",
                    "name": "",
                    "type": "address[]"
                },
                {
                    "internalType": "uint256[]",
                    "name": "",
                    "type": "uint256[]"
                }
            ],
            "stateMutability": "view",
            "type": "function",
            "constant": true
        },
        {
            "inputs": [],
            "name": "togglePause",
            "outputs": [],
            "stateMutability": "nonpayable",
            "type": "function"
        },
        {
            "inputs": [],
            "name": "getMyCampaigns",
            "outputs": [
                {
                    "internalType": "uint256[]",
                    "name": "",
                    "type": "uint256[]"
                }
            ],
            "stateMutability": "view",
            "type": "function",
            "constant": true
        }
    ],
    "bytecode": "0x608060405234801561001057600080fd5b50336000806101000a81548173ffffffffffffffffffffffffffffffffffffffff021916908373ffffffffffffffffffffffffffffffffffffffff1602179055506000600260006101000a81548160ff021916908315150217905550612cdb8061007b6000396000f3fe6080604052600436106100e85760003560e01c80635c975abb1161008a578063c1cbbca711610059578063c1cbbca7146102fa578063c4ae316814610316578063d1bd6a181461032d578063f851a4401461036a576100e8565b80635c975abb146102505780637274e30d1461027b57806382bea0ca146102a6578063a318f269146102d1576100e8565b806319ab3d18116100c657806319ab3d181461018357806319ac74bd146101ac5780633c1ab00f146101e9578063516e8e5214610227576100e8565b80630993cdbe146100ed578063141961bc14610116578063155dd5ee1461015a575b600080fd5b3480156100f957600080fd5b50610114600480360381019061010f9190611a2b565b610395565b005b34801561012257600080fd5b5061013d60048036038101906101389190611a2b565b610707565b604051610151989796959493929190611bca565b60405180910390f35b34801561016657600080fd5b50610181600480360381019061017c9190611a2b565b610899565b005b34801561018f57600080fd5b506101aa60048036038101906101a59190611a2b565b610b22565b005b3480156101b857600080fd5b506101d360048036038101906101ce9190611c94565b610cca565b6040516101e09190611cd4565b60405180910390f35b3480156101f557600080fd5b50610210600480360381019061020b9190611a2b565b610cfb565b60405161021e929190611e6b565b60405180910390f35b34801561023357600080fd5b5061024e60048036038101906102499190611a2b565b610ef6565b005b34801561025c57600080fd5b5061026561111a565b6040516102729190611ea2565b60405180910390f35b34801561028757600080fd5b5061029061112d565b60405161029d9190611cd4565b60405180910390f35b3480156102b257600080fd5b506102bb611133565b6040516102c89190611ebd565b60405180910390f35b3480156102dd57600080fd5b506102f860048036038101906102f39190612014565b6111c8565b005b610314600480360381019061030f9190611a2b565b6114f5565b005b34801561032257600080fd5b5061032b611892565b005b34801561033957600080fd5b50610354600480360381019061034f91906120b3565b611992565b6040516103619190611cd4565b60405180910390f35b34801561037657600080fd5b5061037f6119bd565b60405161038c9190612102565b60405180910390f35b6000600360008381526020019081526020016000209050806003015442116103f2576040517f08c379a00000000000000000000000000000000000000000000000000000000081526004016103e990612169565b60405180910390fd5b8060060160009054906101000a900460ff1615610444576040517f08c379a000000000000000000000000000000000000000000000000000000000815260040161043b906121d5565b60405180910390fd5b6001600281111561045857610457611b38565b5b8160040160149054906101000a900460ff16600281111561047c5761047b611b38565b5b146104bc576040517f08c379a00000000000000000000000000000000000000000000000000000000081526004016104b390612241565b60405180910390fd5b60028160040160146101000a81548160ff021916908360028111156104e4576104e3611b38565b5b021790555060005b60056000848152602001908152602001600020805490508110156106cb57600060056000858152602001908152602001600020828154811061053157610530612261565b5b9060005260206000200160009054906101000a900473ffffffffffffffffffffffffffffffffffffffff16905060006004600086815260200190815260200160002060008373ffffffffffffffffffffffffffffffffffffffff1673ffffffffffffffffffffffffffffffffffffffff16815260200190815260200160002060000154905060008111156106b65760006004600087815260200190815260200160002060008473ffffffffffffffffffffffffffffffffffffffff1673ffffffffffffffffffffffffffffffffffffffff168152602001908152602001600020600001819055508084600501600082825461062c91906122bf565b925050819055508173ffffffffffffffffffffffffffffffffffffffff166108fc829081150290604051600060405180830381858888f19350505050158015610679573d6000803e3d6000fd5b507f7a482fdeb6bc9a1376f597068a214a7a39472bb2eff1b8cad21ba04f49ddca1b8583836040516106ad939291906122f3565b60405180910390a15b505080806106c39061232a565b9150506104ec565b507f7b1418b19a03b176f641639ee79855da661fa88a08377ecd32ad6d38152b9536826040516106fb9190611cd4565b60405180910390a15050565b600360205280600052604060002060009150905080600001805461072a906123a1565b80601f0160208091040260200160405190810160405280929190818152602001828054610756906123a1565b80156107a35780601f10610778576101008083540402835291602001916107a3565b820191906000526020600020905b81548152906001019060200180831161078657829003601f168201915b5050505050908060010180546107b8906123a1565b80601f01602080910402602001604051908101604052809291908181526020018280546107e4906123a1565b80156108315780601f1061080657610100808354040283529160200191610831565b820191906000526020600020905b81548152906001019060200180831161081457829003601f168201915b5050505050908060020154908060030154908060040160009054906101000a900473ffffffffffffffffffffffffffffffffffffffff16908060040160149054906101000a900460ff16908060050154908060060160009054906101000a900460ff16905088565b806003600082815260200190815260200160002060040160009054906101000a900473ffffffffffffffffffffffffffffffffffffffff1673ffffffffffffffffffffffffffffffffffffffff163373ffffffffffffffffffffffffffffffffffffffff161461093e576040517f08c379a00000000000000000000000000000000000000000000000000000000081526004016109359061241e565b60405180910390fd5b60006003600084815260200190815260200160002090506001600281111561096957610968611b38565b5b8160040160149054906101000a900460ff16600281111561098d5761098c611b38565b5b146109cd576040517f08c379a00000000000000000000000000000000000000000000000000000000081526004016109c490612241565b60405180910390fd5b8060060160009054906101000a900460ff16610a1e576040517f08c379a0000000000000000000000000000000000000000000000000000000008152600401610a159061248a565b60405180910390fd5b6000816005015411610a65576040517f08c379a0000000000000000000000000000000000000000000000000000000008152600401610a5c906124f6565b60405180910390fd5b600081600501549050600082600501819055508160040160009054906101000a900473ffffffffffffffffffffffffffffffffffffffff1673ffffffffffffffffffffffffffffffffffffffff166108fc829081150290604051600060405180830381858888f19350505050158015610ae2573d6000803e3d6000fd5b507fd66662c0ded9e58fd31d5e44944bcfd07ffc15e6927ecc1382e7941cb7bd24c48482604051610b14929190612516565b60405180910390a150505050565b806003600082815260200190815260200160002060040160009054906101000a900473ffffffffffffffffffffffffffffffffffffffff1673ffffffffffffffffffffffffffffffffffffffff163373ffffffffffffffffffffffffffffffffffffffff1614610bc7576040517f08c379a0000000000000000000000000000000000000000000000000000000008152600401610bbe9061241e565b60405180910390fd5b600060036000848152602001908152602001600020905060016002811115610bf257610bf1611b38565b5b8160040160149054906101000a900460ff166002811115610c1657610c15611b38565b5b14610c56576040517f08c379a0000000000000000000000000000000000000000000000000000000008152600401610c4d90612241565b60405180910390fd5b8060060160009054906101000a900460ff1615610ca8576040517f08c379a0000000000000000000000000000000000000000000000000000000008152600401610c9f906121d5565b60405180910390fd5b60018160060160006101000a81548160ff021916908315150217905550505050565b60066020528160005260406000208181548110610ce657600080fd5b90600052602060002001600091509150505481565b60608060006005600085815260200190815260200160002080549050905060008167ffffffffffffffff811115610d3557610d34611ee9565b5b604051908082528060200260200182016040528015610d635781602001602082028036833780820191505090505b50905060008267ffffffffffffffff811115610d8257610d81611ee9565b5b604051908082528060200260200182016040528015610db05781602001602082028036833780820191505090505b50905060005b83811015610ee7576000600560008981526020019081526020016000208281548110610de557610de4612261565b5b9060005260206000200160009054906101000a900473ffffffffffffffffffffffffffffffffffffffff16905080848381518110610e2657610e25612261565b5b602002602001019073ffffffffffffffffffffffffffffffffffffffff16908173ffffffffffffffffffffffffffffffffffffffff16815250506004600089815260200190815260200160002060008273ffffffffffffffffffffffffffffffffffffffff1673ffffffffffffffffffffffffffffffffffffffff16815260200190815260200160002060000154838381518110610ec757610ec6612261565b5b602002602001018181525050508080610edf9061232a565b915050610db6565b50818194509450505050915091565b6000600360008381526020019081526020016000209050600280811115610f2057610f1f611b38565b5b8160040160149054906101000a900460ff166002811115610f4457610f43611b38565b5b14610f84576040517f08c379a0000000000000000000000000000000000000000000000000000000008152600401610f7b9061258b565b60405180910390fd5b60006004600084815260200190815260200160002060003373ffffffffffffffffffffffffffffffffffffffff1673ffffffffffffffffffffffffffffffffffffffff1681526020019081526020016000206000015490506000811161101f576040517f08c379a00000000000000000000000000000000000000000000000000000000081526004016110169061261d565b60405180910390fd5b60006004600085815260200190815260200160002060003373ffffffffffffffffffffffffffffffffffffffff1673ffffffffffffffffffffffffffffffffffffffff168152602001908152602001600020600001819055508082600501600082825461108c91906122bf565b925050819055503373ffffffffffffffffffffffffffffffffffffffff166108fc829081150290604051600060405180830381858888f193505050501580156110d9573d6000803e3d6000fd5b507f7a482fdeb6bc9a1376f597068a214a7a39472bb2eff1b8cad21ba04f49ddca1b83338360405161110d939291906122f3565b60405180910390a1505050565b600260009054906101000a900460ff1681565b60015481565b6060600660003373ffffffffffffffffffffffffffffffffffffffff1673ffffffffffffffffffffffffffffffffffffffff1681526020019081526020016000208054806020026020016040519081016040528092919081815260200182805480156111be57602002820191906000526020600020905b8154815260200190600101908083116111aa575b5050505050905090565b600260009054906101000a900460ff1615611218576040517f08c379a000000000000000000000000000000000000000000000000000000000815260040161120f90612689565b60405180910390fd5b6000821161125b576040517f08c379a0000000000000000000000000000000000000000000000000000000008152600401611252906126f5565b60405180910390fd5b6000811161129e576040517f08c379a000000000000000000000000000000000000000000000000000000000815260040161129590612761565b60405180910390fd5b6000600160008154809291906112b39061232a565b91905055905060405180610100016040528086815260200185815260200184815260200162015180846112e69190612781565b426112f191906127c3565b81526020013373ffffffffffffffffffffffffffffffffffffffff1681526020016000600281111561132657611325611b38565b5b8152602001600081526020016000151581525060036000838152602001908152602001600020600082015181600001908161136191906129a3565b50602082015181600101908161137791906129a3565b50604082015181600201556060820151816003015560808201518160040160006101000a81548173ffffffffffffffffffffffffffffffffffffffff021916908373ffffffffffffffffffffffffffffffffffffffff16021790555060a08201518160040160146101000a81548160ff021916908360028111156113fe576113fd611b38565b5b021790555060c0820151816005015560e08201518160060160006101000a81548160ff021916908315150217905550905050600660003373ffffffffffffffffffffffffffffffffffffffff1673ffffffffffffffffffffffffffffffffffffffff1681526020019081526020016000208190806001815401808255809150506001900390600052602060002001600090919091909150557fdc26653af5b99b2da33e2ad69ee6600d9aeccc82b034501db4338309615ca2388133878662015180876114ca9190612781565b426114d591906127c3565b6040516114e6959493929190612a75565b60405180910390a15050505050565b806000600281111561150a57611509611b38565b5b6003600083815260200190815260200160002060040160149054906101000a900460ff1660028111156115405761153f611b38565b5b14611580576040517f08c379a000000000000000000000000000000000000000000000000000000000815260040161157790612b1b565b60405180910390fd5b600360008281526020019081526020016000206003015442106115d8576040517f08c379a00000000000000000000000000000000000000000000000000000000081526004016115cf90612b87565b60405180910390fd5b600260009054906101000a900460ff1615611628576040517f08c379a000000000000000000000000000000000000000000000000000000000815260040161161f90612689565b60405180910390fd5b662386f26fc10000341015611672576040517f08c379a000000000000000000000000000000000000000000000000000000000815260040161166990612bf3565b60405180910390fd5b600060036000848152602001908152602001600020905060006004600085815260200190815260200160002060003373ffffffffffffffffffffffffffffffffffffffff1673ffffffffffffffffffffffffffffffffffffffff16815260200190815260200160002060000154036117595760056000848152602001908152602001600020339080600181540180825580915050600190039060005260206000200160009091909190916101000a81548173ffffffffffffffffffffffffffffffffffffffff021916908373ffffffffffffffffffffffffffffffffffffffff1602179055505b346004600085815260200190815260200160002060003373ffffffffffffffffffffffffffffffffffffffff1673ffffffffffffffffffffffffffffffffffffffff16815260200190815260200160002060000160008282546117bc91906127c3565b92505081905550348160050160008282546117d791906127c3565b9250508190555080600201548160050154106118525760018160040160146101000a81548160ff0219169083600281111561181557611814611b38565b5b02179055507ff2460a88147f5180b9df3609a3c66dda39614029da9fdf0b90564b7154374d2f836040516118499190611cd4565b60405180910390a15b7f865c884d49c8cecaef108efb20f7d282f26c0f9b0d24dd48e5592d4e02ec658d833334604051611885939291906122f3565b60405180910390a1505050565b60008054906101000a900473ffffffffffffffffffffffffffffffffffffffff1673ffffffffffffffffffffffffffffffffffffffff163373ffffffffffffffffffffffffffffffffffffffff1614611920576040517f08c379a000000000000000000000000000000000000000000000000000000000815260040161191790612c85565b60405180910390fd5b600260009054906101000a900460ff1615600260006101000a81548160ff0219169083151502179055507fa66983f1e0c06bda0301fafb95e0a6dd52718dee3977fafebb9baf5c096dfbfa600260009054906101000a900460ff166040516119889190611ea2565b60405180910390a1565b6004602052816000526040600020602052806000526040600020600091509150508060000154905081565b60008054906101000a900473ffffffffffffffffffffffffffffffffffffffff1681565b6000604051905090565b600080fd5b600080fd5b6000819050919050565b611a08816119f5565b8114611a1357600080fd5b50565b600081359050611a25816119ff565b92915050565b600060208284031215611a4157611a406119eb565b5b6000611a4f84828501611a16565b91505092915050565b600081519050919050565b600082825260208201905092915050565b60005b83811015611a92578082015181840152602081019050611a77565b60008484015250505050565b6000601f19601f8301169050919050565b6000611aba82611a58565b611ac48185611a63565b9350611ad4818560208601611a74565b611add81611a9e565b840191505092915050565b611af1816119f5565b82525050565b600073ffffffffffffffffffffffffffffffffffffffff82169050919050565b6000611b2282611af7565b9050919050565b611b3281611b17565b82525050565b7f4e487b7100000000000000000000000000000000000000000000000000000000600052602160045260246000fd5b60038110611b7857611b77611b38565b5b50565b6000819050611b8982611b67565b919050565b6000611b9982611b7b565b9050919050565b611ba981611b8e565b82525050565b60008115159050919050565b611bc481611baf565b82525050565b6000610100820190508181036000830152611be5818b611aaf565b90508181036020830152611bf9818a611aaf565b9050611c086040830189611ae8565b611c156060830188611ae8565b611c226080830187611b29565b611c2f60a0830186611ba0565b611c3c60c0830185611ae8565b611c4960e0830184611bbb565b9998505050505050505050565b6000611c6182611af7565b9050919050565b611c7181611c56565b8114611c7c57600080fd5b50565b600081359050611c8e81611c68565b92915050565b60008060408385031215611cab57611caa6119eb565b5b6000611cb985828601611c7f565b9250506020611cca85828601611a16565b9150509250929050565b6000602082019050611ce96000830184611ae8565b92915050565b600081519050919050565b600082825260208201905092915050565b6000819050602082019050919050565b611d2481611c56565b82525050565b6000611d368383611d1b565b60208301905092915050565b6000602082019050919050565b6000611d5a82611cef565b611d648185611cfa565b9350611d6f83611d0b565b8060005b83811015611da0578151611d878882611d2a565b9750611d9283611d42565b925050600181019050611d73565b5085935050505092915050565b600081519050919050565b600082825260208201905092915050565b6000819050602082019050919050565b611de2816119f5565b82525050565b6000611df48383611dd9565b60208301905092915050565b6000602082019050919050565b6000611e1882611dad565b611e228185611db8565b9350611e2d83611dc9565b8060005b83811015611e5e578151611e458882611de8565b9750611e5083611e00565b925050600181019050611e31565b5085935050505092915050565b60006040820190508181036000830152611e858185611d4f565b90508181036020830152611e998184611e0d565b90509392505050565b6000602082019050611eb76000830184611bbb565b92915050565b60006020820190508181036000830152611ed78184611e0d565b905092915050565b600080fd5b600080fd5b7f4e487b7100000000000000000000000000000000000000000000000000000000600052604160045260246000fd5b611f2182611a9e565b810181811067ffffffffffffffff82111715611f4057611f3f611ee9565b5b80604052505050565b6000611f536119e1565b9050611f5f8282611f18565b919050565b600067ffffffffffffffff821115611f7f57611f7e611ee9565b5b611f8882611a9e565b9050602081019050919050565b82818337600083830152505050565b6000611fb7611fb284611f64565b611f49565b905082815260208101848484011115611fd357611fd2611ee4565b5b611fde848285611f95565b509392505050565b600082601f830112611ffb57611ffa611edf565b5b813561200b848260208601611fa4565b91505092915050565b6000806000806080858703121561202e5761202d6119eb565b5b600085013567ffffffffffffffff81111561204c5761204b6119f0565b5b61205887828801611fe6565b945050602085013567ffffffffffffffff811115612079576120786119f0565b5b61208587828801611fe6565b935050604061209687828801611a16565b92505060606120a787828801611a16565b91505092959194509250565b600080604083850312156120ca576120c96119eb565b5b60006120d885828601611a16565b92505060206120e985828601611c7f565b9150509250929050565b6120fc81611c56565b82525050565b600060208201905061211760008301846120f3565b92915050565b7f43616d706169676e20646561646c696e65206e6f742070617373656400000000600082015250565b6000612153601c83611a63565b915061215e8261211d565b602082019050919050565b6000602082019050818103600083015261218281612146565b9050919050565b7f50726f6f6620616c7265616479207375626d6974746564000000000000000000600082015250565b60006121bf601783611a63565b91506121ca82612189565b602082019050919050565b600060208201905081810360008301526121ee816121b2565b9050919050565b7f43616d706169676e206973206e6f74207375636365737366756c000000000000600082015250565b600061222b601a83611a63565b9150612236826121f5565b602082019050919050565b6000602082019050818103600083015261225a8161221e565b9050919050565b7f4e487b7100000000000000000000000000000000000000000000000000000000600052603260045260246000fd5b7f4e487b7100000000000000000000000000000000000000000000000000000000600052601160045260246000fd5b60006122ca826119f5565b91506122d5836119f5565b92508282039050818111156122ed576122ec612290565b5b92915050565b60006060820190506123086000830186611ae8565b61231560208301856120f3565b6123226040830184611ae8565b949350505050565b6000612335826119f5565b91507fffffffffffffffffffffffffffffffffffffffffffffffffffffffffffffffff820361236757612366612290565b5b600182019050919050565b7f4e487b7100000000000000000000000000000000000000000000000000000000600052602260045260246000fd5b600060028204905060018216806123b957607f821691505b6020821081036123cc576123cb612372565b5b50919050565b7f4e6f74207468652063616d706169676e206f776e657200000000000000000000600082015250565b6000612408601683611a63565b9150612413826123d2565b602082019050919050565b60006020820190508181036000830152612437816123fb565b9050919050565b7f436f6d706c6574696f6e2070726f6f66206e6f74207375626d69747465640000600082015250565b6000612474601e83611a63565b915061247f8261243e565b602082019050919050565b600060208201905081810360008301526124a381612467565b9050919050565b7f4e6f2066756e647320746f207769746864726177000000000000000000000000600082015250565b60006124e0601483611a63565b91506124eb826124aa565b602082019050919050565b6000602082019050818103600083015261250f816124d3565b9050919050565b600060408201905061252b6000830185611ae8565b6125386020830184611ae8565b9392505050565b7f43616d706169676e206e6f74206661696c656400000000000000000000000000600082015250565b6000612575601383611a63565b91506125808261253f565b602082019050919050565b600060208201905081810360008301526125a481612568565b9050919050565b7f596f75206469646e277420636f6e7472696275746520746f207468697320636160008201527f6d706169676e0000000000000000000000000000000000000000000000000000602082015250565b6000612607602683611a63565b9150612612826125ab565b604082019050919050565b60006020820190508181036000830152612636816125fa565b9050919050565b7f436f6e7472616374206973207061757365640000000000000000000000000000600082015250565b6000612673601283611a63565b915061267e8261263d565b602082019050919050565b600060208201905081810360008301526126a281612666565b9050919050565b7f476f616c206d7573742062652067726561746572207468616e20300000000000600082015250565b60006126df601b83611a63565b91506126ea826126a9565b602082019050919050565b6000602082019050818103600083015261270e816126d2565b9050919050565b7f4475726174696f6e206d7573742062652067726561746572207468616e203000600082015250565b600061274b601f83611a63565b915061275682612715565b602082019050919050565b6000602082019050818103600083015261277a8161273e565b9050919050565b600061278c826119f5565b9150612797836119f5565b92508282026127a5816119f5565b915082820484148315176127bc576127bb612290565b5b5092915050565b60006127ce826119f5565b91506127d9836119f5565b92508282019050808211156127f1576127f0612290565b5b92915050565b60008190508160005260206000209050919050565b60006020601f8301049050919050565b600082821b905092915050565b6000600883026128597fffffffffffffffffffffffffffffffffffffffffffffffffffffffffffffffff8261281c565b612863868361281c565b95508019841693508086168417925050509392505050565b6000819050919050565b60006128a061289b612896846119f5565b61287b565b6119f5565b9050919050565b6000819050919050565b6128ba83612885565b6128ce6128c6826128a7565b848454612829565b825550505050565b600090565b6128e36128d6565b6128ee8184846128b1565b505050565b5b81811015612912576129076000826128db565b6001810190506128f4565b5050565b601f82111561295757612928816127f7565b6129318461280c565b81016020851015612940578190505b61295461294c8561280c565b8301826128f3565b50505b505050565b600082821c905092915050565b600061297a6000198460080261295c565b1980831691505092915050565b60006129938383612969565b9150826002028217905092915050565b6129ac82611a58565b67ffffffffffffffff8111156129c5576129c4611ee9565b5b6129cf82546123a1565b6129da828285612916565b600060209050601f831160018114612a0d57600084156129fb578287015190505b612a058582612987565b865550612a6d565b601f198416612a1b866127f7565b60005b82811015612a4357848901518255600182019150602085019450602081019050612a1e565b86831015612a605784890151612a5c601f891682612969565b8355505b6001600288020188555050505b505050505050565b600060a082019050612a8a6000830188611ae8565b612a9760208301876120f3565b8181036040830152612aa98186611aaf565b9050612ab86060830185611ae8565b612ac56080830184611ae8565b9695505050505050565b7f43616d706169676e206973206e6f742061637469766500000000000000000000600082015250565b6000612b05601683611a63565b9150612b1082612acf565b602082019050919050565b60006020820190508181036000830152612b3481612af8565b9050919050565b7f43616d706169676e20646561646c696e65207061737365640000000000000000600082015250565b6000612b71601883611a63565b9150612b7c82612b3b565b602082019050919050565b60006020820190508181036000830152612ba081612b64565b9050919050565b7f4d696e696d756d20636f6e747269627574696f6e20697320302e303120455448600082015250565b6000612bdd602083611a63565b9150612be882612ba7565b602082019050919050565b60006020820190508181036000830152612c0c81612bd0565b9050919050565b7f4f6e6c792061646d696e2063616e2063616c6c20746869732066756e6374696f60008201527f6e00000000000000000000000000000000000000000000000000000000000000602082015250565b6000612c6f602183611a63565b9150612c7a82612c13565b604082019050919050565b60006020820190508181036000830152612c9e81612c62565b905091905056fea264697066735822122024ba9c5fd084dcf1543fe0e6a11e378963bc259129449219150e0aa30f029f0664736f6c63430008130033",
    "immutableReferences": {},
    "source": "// SPDX-License-Identifier: MIT\r\npragma solidity ^0.8.19;\r\n\r\ncontract Crowdfunding {\r\n    address public admin;\r\n    uint256 public campaignCount;\r\n    bool public paused;\r\n\r\n    enum CampaignState { Active, Successful, Failed }\r\n\r\n    struct Campaign {\r\n        string name;\r\n        string description;\r\n        uint256 goal;\r\n        uint256 deadline;\r\n        address payable owner;\r\n        CampaignState state;\r\n        uint256 balance;\r\n        bool proofSubmitted;\r\n    }\r\n\r\n    struct Backer {\r\n        uint256 amountContributed;\r\n    }\r\n\r\n    mapping(uint256 => Campaign) public campaigns;\r\n    mapping(uint256 => mapping(address => Backer)) public campaignBackers;\r\n    mapping(uint256 => address[]) private campaignContributors;\r\n    mapping(address => uint256[]) public userCampaigns;\r\n\r\n    event CampaignCreated(uint256 campaignId, address owner, string name, uint256 goal, uint256 deadline);\r\n    event ContributionReceived(uint256 campaignId, address contributor, uint256 amount);\r\n    event CampaignSuccessful(uint256 campaignId);\r\n    event CampaignFailed(uint256 campaignId);\r\n    event FundsWithdrawn(uint256 campaignId, uint256 amount);\r\n    event RefundIssued(uint256 campaignId, address backer, uint256 amount);\r\n    event CampaignPaused(bool isPaused);\r\n\r\n    modifier onlyAdmin() {\r\n        require(msg.sender == admin, \"Only admin can call this function\");\r\n        _;\r\n    }\r\n\r\n    modifier onlyOwner(uint256 _campaignId) {\r\n        require(msg.sender == campaigns[_campaignId].owner, \"Not the campaign owner\");\r\n        _;\r\n    }\r\n\r\n    modifier campaignActive(uint256 _campaignId) {\r\n        require(campaigns[_campaignId].state == CampaignState.Active, \"Campaign is not active\");\r\n        require(block.timestamp < campaigns[_campaignId].deadline, \"Campaign deadline passed\");\r\n        _;\r\n    }\r\n\r\n    modifier contractNotPaused() {\r\n        require(!paused, \"Contract is paused\");\r\n        _;\r\n    }\r\n\r\n    constructor() {\r\n        admin = msg.sender;\r\n        paused = false;\r\n    }\r\n\r\n    function createCampaign(\r\n        string memory _name,\r\n        string memory _description,\r\n        uint256 _goal,\r\n        uint256 _duration\r\n    ) external contractNotPaused {\r\n        require(_goal > 0, \"Goal must be greater than 0\");\r\n        require(_duration > 0, \"Duration must be greater than 0\");\r\n\r\n        uint256 campaignId = campaignCount++;\r\n\r\n        campaigns[campaignId] = Campaign({\r\n            name: _name,\r\n            description: _description,\r\n            goal: _goal,\r\n            deadline: block.timestamp + (_duration * 1 days),\r\n            owner: payable(msg.sender),\r\n            state: CampaignState.Active,\r\n            balance: 0,\r\n            proofSubmitted: false\r\n        });\r\n\r\n        userCampaigns[msg.sender].push(campaignId);\r\n\r\n        emit CampaignCreated(campaignId, msg.sender, _name, _goal, block.timestamp + (_duration * 1 days));\r\n    }\r\n\r\n    function contribute(uint256 _campaignId)\r\n        external\r\n        payable\r\n        campaignActive(_campaignId)\r\n        contractNotPaused\r\n    {\r\n        require(msg.value >= 0.01 ether, \"Minimum contribution is 0.01 ETH\");\r\n\r\n        Campaign storage campaign = campaigns[_campaignId];\r\n\r\n        if (campaignBackers[_campaignId][msg.sender].amountContributed == 0) {\r\n            campaignContributors[_campaignId].push(msg.sender);\r\n        }\r\n\r\n        campaignBackers[_campaignId][msg.sender].amountContributed += msg.value;\r\n        campaign.balance += msg.value;\r\n\r\n        if (campaign.balance >= campaign.goal) {\r\n            campaign.state = CampaignState.Successful;\r\n            emit CampaignSuccessful(_campaignId);\r\n        }\r\n\r\n        emit ContributionReceived(_campaignId, msg.sender, msg.value);\r\n    }\r\n\r\n    function submitCompletionProof(uint256 _campaignId) external onlyOwner(_campaignId) {\r\n        Campaign storage campaign = campaigns[_campaignId];\r\n\r\n        require(campaign.state == CampaignState.Successful, \"Campaign is not successful\");\r\n        require(!campaign.proofSubmitted, \"Proof already submitted\");\r\n\r\n        campaign.proofSubmitted = true;\r\n    }\r\n\r\n    function withdrawFunds(uint256 _campaignId) external onlyOwner(_campaignId) {\r\n        Campaign storage campaign = campaigns[_campaignId];\r\n        require(campaign.state == CampaignState.Successful, \"Campaign is not successful\");\r\n        require(campaign.proofSubmitted, \"Completion proof not submitted\");\r\n        require(campaign.balance > 0, \"No funds to withdraw\");\r\n\r\n        uint256 amount = campaign.balance;\r\n        campaign.balance = 0;\r\n        campaign.owner.transfer(amount);\r\n\r\n        emit FundsWithdrawn(_campaignId, amount);\r\n    }\r\n\r\n    function refundBackers(uint256 _campaignId) external {\r\n        Campaign storage campaign = campaigns[_campaignId];\r\n        require(campaign.state == CampaignState.Failed, \"Campaign not failed\");\r\n\r\n        uint256 amount = campaignBackers[_campaignId][msg.sender].amountContributed;\r\n        require(amount > 0, \"You didn't contribute to this campaign\");\r\n\r\n        campaignBackers[_campaignId][msg.sender].amountContributed = 0;\r\n        campaign.balance -= amount;\r\n        payable(msg.sender).transfer(amount);\r\n\r\n        emit RefundIssued(_campaignId, msg.sender, amount);\r\n    }\r\n\r\n    function autoRefund(uint256 _campaignId) external {\r\n        Campaign storage campaign = campaigns[_campaignId];\r\n\r\n        require(block.timestamp > campaign.deadline, \"Campaign deadline not passed\");\r\n        require(!campaign.proofSubmitted, \"Proof already submitted\");\r\n        require(campaign.state == CampaignState.Successful, \"Campaign is not successful\");\r\n\r\n        campaign.state = CampaignState.Failed;\r\n\r\n        // Refund all contributors\r\n        for (uint256 i = 0; i < campaignContributors[_campaignId].length; i++) {\r\n            address backer = campaignContributors[_campaignId][i];\r\n            uint256 amount = campaignBackers[_campaignId][backer].amountContributed;\r\n\r\n            if (amount > 0) {\r\n                campaignBackers[_campaignId][backer].amountContributed = 0;\r\n                campaign.balance -= amount;\r\n                payable(backer).transfer(amount);\r\n\r\n                emit RefundIssued(_campaignId, backer, amount);\r\n            }\r\n        }\r\n\r\n        emit CampaignFailed(_campaignId);\r\n    }\r\n\r\n    function getContributors(uint256 _campaignId) external view returns (address[] memory, uint256[] memory) {\r\n        uint256 length = campaignContributors[_campaignId].length;\r\n        address[] memory contributors = new address[](length);\r\n        uint256[] memory amounts = new uint256[](length);\r\n\r\n        for (uint256 i = 0; i < length; i++) {\r\n            address contributor = campaignContributors[_campaignId][i];\r\n            contributors[i] = contributor;\r\n            amounts[i] = campaignBackers[_campaignId][contributor].amountContributed;\r\n        }\r\n\r\n        return (contributors, amounts);\r\n    }\r\n\r\n    function togglePause() external onlyAdmin {\r\n        paused = !paused;\r\n        emit CampaignPaused(paused);\r\n    }\r\n\r\n    function getMyCampaigns() external view returns (uint256[] memory) {\r\n        return userCampaigns[msg.sender];\r\n    }\r\n}\r\n",
    "sourcePath": "C:\\Users\\omcha\\Desktop\\mini_project_gg\\blockchain-crowdfunding\\contracts\\Crowdfunding.sol",
    "compiler": {
        "name": "solc",
        "version": "0.8.19+commit.7dd6d404.Emscripten.clang"
    },
    "schemaVersion": "3.4.16",
    "updatedAt": "2025-03-17T19:06:30.133Z",
    "networkType": "ethereum",
    "devdoc": {
        "kind": "dev",
        "methods": {},
        "version": 1
    },
    "userdoc": {
        "kind": "user",
        "methods": {},
        "version": 1
    }
}